:100000000C9448010C9479010C9479010C947901B9
:100010000C9479010C9479010C9479010C94790178
:100020000C9479010C9479010C9479010C94790168
:100030000C9479010C94E0070C9479010C947901EB
:100040000C9479010C9479010C9479010C94790148
:100050000C9479010C9479010C9479010C94960715
:100060000C9479010C946A080C9440080C94790162
:100070000C9479010C9479010C9479010C94790118
:100080000C9479010C9479010C9479010C94790108
:100090000C9479010C9479010C9479010C947901F8
:1000A0000C9479010C9479010C9479010C947901E8
:1000B0000C9479010C9479010C9479010C947901D8
:1000C0000C9479010C9479010C9479010C947901C8
:1000D0000C9479010C9479010C9479010C947901B8
:1000E0000C9479019601990188018C019201D0014B
:1000F0009D01A101A701AB01AF01B501B901BD018E
:10010000D001C301C701CB010C94C7050C94C701F2
:100110000C94AB010C94C3010C94A5060C945E06E0
:100120000C9405060C9496010C94F6050C94AF0102
:100130000C94BD010C94CB010C94A7010C948C0180
:100140000C94B9010C945B0A0C94D0010C949D01A1
:100150000C94A1010C9492010C9427060C94B50107
:100160000C9419060C9488010C949901000020004D
:100170002300260029002C002F003200000100007F
:1001800003010601090100002100240027002A00C4
:100190002D003000330001010000040107010A01B5
:1001A00000000A0B02090C0D0E08070304010000F1
:1001B000000000000000000000000000000000003F
:1001C00000000000000000000000000012111000FC
:1001D000000000000000000000000000000000001F
:1001E000000000000000010210202008081020403C
:1001F00010204080020102010804020101020408EB
:100200001020408080402010080402018004020178
:1002100080402010080402010804020101020408C1
:1002200010204080010204081020408000002200BD
:10023000250028002B002E003100340002010000B0
:10024000050108010B010505050507050808080853
:10025000020202020A0A080804040404010101015E
:100260000101010103030303030303030407070759
:100270000C0C0C0C0C0C0C0C0202020206060606FE
:10028000060606060B0B0B0B0B0B0B0B02005B0A97
:1002900011241FBECFEFD1E2DEBFCDBF00E00CBF07
:1002A00012E0A0E0B2E0E8EAF6E100E00BBF02C035
:1002B00007900D92A434B107D9F723E0A4E4B2E08B
:1002C00001C01D92AB32B207E1F711E0C8E4D1E002
:1002D00000E006C021970109802FFE010E94450B16
:1002E000C734D10780E00807A9F70E94A0080C9442
:1002F000520B0C94000090E0FC013197E231F105C3
:1003000008F04EC08827EE58FF4F8F4F0C94450BD6
:10031000809180008F7703C0809180008F7D8093D3
:100320008000089580918000877FF9CF84B58F7712
:1003300002C084B58F7D84BD08958091B0008F7711
:1003400003C08091B0008F7D8093B00008958091AC
:1003500090008F7707C0809190008F7D03C08091BF
:100360009000877F8093900008958091A0008F7700
:1003700007C08091A0008F7D03C08091A000877F7F
:100380008093A0000895809120018F7707C080910D
:1003900020018F7D03C080912001877F8093200101
:1003A00008951F93CF93DF93282F30E0F901E05693
:1003B000FE4F8491F901EA51FE4FD491F901EA5BB5
:1003C000FD4FC491CC23C9F0162F81110E947B01EF
:1003D000EC2FF0E0EE0FFF1FE45DFD4FA591B4910F
:1003E0008FB7F894111105C09C91ED2FE095E9238A
:1003F00002C0EC91ED2BEC938FBFDF91CF911F9159
:100400000895CF93DF9390E0FC01EA51FE4F2491D1
:10041000FC01EA5BFD4F8491882361F190E0880F35
:10042000991FFC01EA57FE4FC591D491FC01E45D90
:10043000FD4FA591B491611109C09FB7F8948881CF
:10044000209582238883EC912E230BC0623061F4C7
:100450009FB7F8943881822F809583238883EC910D
:100460002E2B2C939FBF06C08FB7F894E8812E2BBC
:1004700028838FBFDF91CF9108958F929F92AF9283
:10048000BF92CF92DF92EF92FF92CF9390910002B2
:10049000981721F09F3F09F0CFC204C0ECE8F2E0CA
:1004A000C491FEC080930002ECE8F2E0C491CF3F1B
:1004B00009F4C2C2C23009F47EC06CF5CC2309F441
:1004C00059C0C13009F0ECC0109280001092810038
:1004D000909181009860909381009091810091604B
:1004E00090938100282F30E0F901EA5BFD4FE49101
:1004F000F0E0EE0FFF1FE45DFD4F459154915093E6
:100500000F0340930E03F901EA51FE4FE491E0938B
:100510000D03C1E0C7C0C43009F49BC00CF472C025
:10052000C53009F0BDC010922001109221019091B8
:100530002101986090932101909121019160909305
:100540002101282F30E0F901EA5BFD4FE491F0E052
:10055000EE0FFF1FE45DFD4F45915491509303034F
:1005600040930203F901EA51FE4FE491E093010345
:10057000C5E098C014BC15BC94B5926094BD95B507
:10058000916095BD282F30E0F901EA5BFD4FE491C1
:10059000F0E0EE0FFF1FE45DFD4F45915491509345
:1005A000120340931103F901EA51FE4FE491E093E5
:1005B0001003C0E077C01092B0001092B10090918B
:1005C000B00092609093B0009091B10091609093D0
:1005D000B100282F30E0F901EA5BFD4FE491F0E033
:1005E000EE0FFF1FE45DFD4F4591549150930C03B6
:1005F00040930B03F901EA51FE4FE491E0930A03A3
:10060000C2E050C010929000109291009091910021
:1006100098609093910090919100916090939100D7
:10062000282F30E0F901EA5BFD4FE491F0E0EE0F96
:10063000FF1FE45DFD4F4591549150930903409392
:100640000803F901EA51FE4FE491E0930703C3E088
:1006500029C01092A0001092A1009091A100986072
:100660009093A1009091A10091609093A100282FF8
:1006700030E0F901EA5BFD4FE491F0E0EE0FFF1F7F
:10068000E45DFD4F4591549150930603409305035B
:10069000F901EA51FE4FE491E0930403C4E002C083
:1006A000C7FDCAC16B0161E00E940102E12CF12C7F
:1006B0008C2F8D7F09F0A0C060E072E18AE790E0A6
:1006C000A70196010E94E20A49015A01DA01C90113
:1006D0000197A109B1098F3F9105A105B10509F065
:1006E00008F442C060E472E48FE090E0A701960154
:1006F0000E94E20ADA01C9010197A109B109C230D9
:10070000E1F48F3F9105A105B10509F008F492C10C
:1007100060E970ED83E090E0A70196010E94E20A93
:10072000DA01C9010197A109B1098F3F9105A1051E
:10073000B10509F088F523E058C08F3F9105A10568
:10074000B105A1F098F068E478EE81E090E0A701AF
:1007500096010E94E20ADA01C9010197A109B109D3
:10076000CC2309F41BC15EC121E001C022E0CC23EF
:1007700071F03BC0D501C4012AE0B595A7959795C6
:1007800087952A95D1F70197A109B10925E035B5DB
:10079000387F232B25BD87C068E478EE81E090E0A8
:1007A000A70196010E94E20ADA01C9010197A10995
:1007B000B1098F3F9105A105B10509F008F4ECC01E
:1007C00064E274EF80E090E0A70196010E94E20AE3
:1007D000DA01C9010197A109B1098F3F9105A1056E
:1007E000B10511F008F0F8C025E03091B100387F74
:1007F000232B2093B10046C060E072E18AE790E0CD
:10080000A70196010E94E20ADA01C9010197A10934
:10081000B109009721E0A207B10578F068E478EE0D
:1008200081E090E0A70196010E94E20ADA01C90185
:100830000197A109B10923E001C021E0C13039F4D9
:1008400030918100387F232B209381003EC0C3303C
:1008500039F430919100387F232B209391005DC0B3
:10086000C43039F43091A100387F232B2093A100AC
:1008700069C0C53039F430912101387F232B209392
:10088000210175C0C230B1F134F4CC2361F0C13024
:1008900009F0D2C01AC0C43009F454C0F4F1C53014
:1008A00009F465C0C9C087BD8FEF9FEFDC0180935D
:1008B000270390932803A0932903B0932A038091E0
:1008C0006E00826080936E00B7C090938900809321
:1008D00088008FEF9FEFDC01809323039093240324
:1008E000A0932503B093260380916F0082608093CC
:1008F0006F00A2C08093B3008FEF9FEFDC01809365
:100900001F0390932003A0932103B09322038091AF
:1009100070008260809370008FC0909399008093E4
:1009200098008FEF9FEFDC0180931B0390931C03D3
:10093000A0931D03B0931E03809171008260809389
:1009400071007AC09093A9008093A8008FEF9FEF69
:10095000DC018093170390931803A0931903B093BD
:100960001A038091720082608093720065C0909338
:100970002901809328018FEF9FEFDC0180931303FF
:1009800090931403A0931503B09316038091730002
:1009900082608093730050C024E027CF8F3F910581
:1009A000A105B105B9F0B0F062E17AE780E090E02E
:1009B000A70196010E94E20ADA01C9010197A10983
:1009C000B1098F3F9105A105B10511F008F0D2CE14
:1009D00024E0DDCE23E0DBCE62E17AE780E090E048
:1009E000A70196010E94E20ADA01C9010197A10953
:1009F000B1098F3F9105A105B10591F088F0D501AE
:100A0000C4013AE0B595A795979587953A95D1F7A2
:100A10000197A109B109CC2309F4B8CE27E0E5CEAE
:100A200026E0A5CE8F3F9105A105B10509F0A0F6FE
:100A300024E09DCE22E0D9CECF91FF90EF90DF90C1
:100A4000CF90BF90AF909F908F9008953FB7F8944C
:100A50008091600290916102A0916202B091630264
:100A600026B5A89B05C02F3F19F00196A11DB11D09
:100A70003FBFBA2FA92F982F8827820F911DA11D44
:100A8000B11DBC01CD0142E0660F771F881F991F81
:100A90004A95D1F708958F929F92AF92BF92CF92CD
:100AA000DF92EF92FF920E9426054B015C0188EED7
:100AB000C82E83E0D82EE12CF12C0E942605DC0103
:100AC000CB0188199909AA09BB09883E9340A10561
:100AD000B10558F021E0C21AD108E108F10888EE0A
:100AE000880E83E0981EA11CB11CC114D104E1043E
:100AF000F10419F7FF90EF90DF90CF90BF90AF9087
:100B00009F908F9008959091000298133DC0ECE85B
:100B1000F2E0E4919FEF90930002E230C9F050F4CC
:100B2000EE2399F0E13081F590916F009D7F9093D5
:100B30006F002AC0E43019F1E0F0E53029F590911A
:100B400073009D7F909373001FC010926E001CC0B5
:100B5000909170009D7F9093700091E09093B00011
:100B60009091B100987F94609093B1001092B3007F
:100B70000BC0909171009D7F9093710005C0909182
:100B800072009D7F9093720060E00C94D101CF922F
:100B9000DF92EF92FF920F931F93CF93DF936C013D
:100BA0007A018B01C0E0D0E0CE15DF0589F0D801D5
:100BB0006D918D01D601ED91FC910190F081E02DB8
:100BC000C6011995892B11F47E0102C02196ECCF44
:100BD000C701DF91CF911F910F91FF90EF90DF90B0
:100BE000CF900895089580E090E00895FC01538D22
:100BF000448D252F30E0842F90E0821B930B5417F7
:100C000010F0CF96089501970895FC01918D828D83
:100C1000981761F0828DDF01A80FB11D5D968C9150
:100C2000928D9F5F9F73928F90E008958FEF9FEF5B
:100C30000895FC01918D828D981731F0828DE80F17
:100C4000F11D858D90E008958FEF9FEF0895FC01D1
:100C5000918D228D892F90E0805C9F4F821B91099E
:100C60008F739927089584E692E00E94270621E079
:100C7000892B09F420E0822F0895FC01848DDF0187
:100C8000A80FB11DA35ABF4F2C91848D90E00196FF
:100C90008F739927848FA689B7892C93A089B189EE
:100CA0008C9180648C93938D848D981306C00288F8
:100CB000F389E02D80818F7D80830895EF92FF92EC
:100CC0000F931F93CF93DF93EC0181E0888F9B8D6F
:100CD0008C8D981305C0E889F989808185FD24C031
:100CE000F62E0B8D10E00F5F1F4F0F731127E02EB4
:100CF0008C8DE8120CC00FB607FCFACFE889F98991
:100D0000808185FFF5CFCE010E943D06F1CF8B8D0E
:100D1000FE01E80FF11DE35AFF4FF0820B8FEA89C5
:100D2000FB898081806207C0EE89FF896083E88942
:100D3000F98980818064808381E090E0DF91CF91A8
:100D40001F910F91FF90EF900895CF93DF93EC01E7
:100D5000888D8823C9F0EA89FB89808185FD05C0DB
:100D6000A889B9898C9186FD0FC00FB607FCF5CF15
:100D7000808185FFF2CFA889B9898C9185FFEDCF5D
:100D8000CE010E943D06E7CFDF91CF91089580E02C
:100D900090E0892B21F00E943306811125C080E06C
:100DA00090E0892B41F080E090E0892B21F00E94B7
:100DB000000081111CC080E090E0892B41F080E0B0
:100DC00090E0892B21F00E940000811113C080E087
:100DD00090E0892BA1F080E090E0892B81F00E94C7
:100DE000000081110AC008950E940000D8CF0E941F
:100DF0000000E1CF0E940000EACF0C9400000895AB
:100E0000009769F0FC0101900020E9F73197AF01EC
:100E1000481B590BBC0184E692E00C94C70580E0A6
:100E200090E008958F929F92AF92BF92CF92DF92FF
:100E3000EF92FF920F931F93CF93DF93CDB7DEB75F
:100E4000A1970FB6F894DEBF0FBECDBF6C01990F0E
:100E5000EE08FF08F7FE31C0E0916402F0916502F0
:100E60000190F081E02D6DE284E692E019958C010D
:100E700022273327A9012C193D094E095F0919A220
:100E8000CE0181967C019AE0892E912CA12CB12C67
:100E9000CA01B901A50194010E94140B605DF7011C
:100EA00062937F01211531054105510589F7CF0175
:100EB0000E940007080F191F1EC0A701960119A262
:100EC0008E010F5D1F4F8AE0C82ED12CE12CF12C32
:100ED000CA01B901A70196010E94140B605DF801D7
:100EE00062938F01211531054105510589F7CF0125
:100EF0000E9400078C018FE292E00E940007800FA1
:100F0000911FA1960FB6F894DEBF0FBECDBFDF9143
:100F1000CF911F910F91FF90EF90DF90CF90BF90F6
:100F2000AF909F908F9008950E944D0B1F920F924B
:100F30000FB60F9211242F933F938F939F93AF93EC
:100F4000BF9380915C0290915D02A0915E02B0918E
:100F50005F0230915B0223E0230F2D3720F40196CE
:100F6000A11DB11D05C026E8230F0296A11DB11DCC
:100F700020935B0280935C0290935D02A0935E02DB
:100F8000B0935F028091600290916102A091620231
:100F9000B09163020196A11DB11D809360029093F0
:100FA0006102A0936202B0936302BF91AF919F91DF
:100FB0008F913F912F910F900FBE0F901F9018951A
:100FC0001F920F920FB60F9211240BB60F922F9310
:100FD0003F934F935F936F937F938F939F93AF93C1
:100FE000BF93EF93FF9380911F0390912003A091F3
:100FF0002103B0912203892B8A2B8B2B51F18091F5
:101000000A03E0910B03F0910C0390818927808300
:1010100080911F0390912003A0912103B09122039E
:10102000181619061A061B06C4F480911F03909126
:101030002003A0912103B09122030197A109B109D6
:1010400080931F0390932003A0932103B093220366
:1010500004C0809100020E948305FF91EF91BF912F
:10106000AF919F918F917F916F915F914F913F9140
:101070002F910F900BBE0F900FBE0F901F901895E1
:101080001F920F920FB60F9211240BB60F922F934F
:101090003F934F935F936F937F938F939F93AF9300
:1010A000BF93EF93FF9384E692E00E943D06FF9189
:1010B000EF91BF91AF919F918F917F916F915F91D0
:1010C0004F913F912F910F900BBE0F900FBE0F903D
:1010D0001F9018951F920F920FB60F9211240BB606
:1010E0000F922F938F939F93EF93FF93E09174024E
:1010F000F09175028081E0917A02F0917B0282FD8D
:1011000012C0908180917D028F5F8F7320917E024B
:10111000821751F0E0917D02F0E0EC59FD4F958F80
:1011200080937D0201C08081FF91EF919F918F910B
:101130002F910F900BBE0F900FBE0F901F90189520
:10114000789484B5826084BD84B5816084BD85B5A2
:10115000826085BD85B5816085BD80916E008160AE
:1011600080936E0010928100809181008260809354
:101170008100809181008160809381008091800056
:101180008160809380008091B10084608093B10081
:101190008091B00081608093B00080919100826066
:1011A0008093910080919100816080939100809163
:1011B00090008160809390008091A1008260809374
:1011C000A1008091A10081608093A1008091A00086
:1011D00081608093A0008091210182608093210131
:1011E00080912101816080932101809120018160A3
:1011F0008093200180917A00846080937A008091AE
:101200007A00826080937A0080917A008160809376
:101210007A0080917A00806880937A001092C100F1
:1012200061E08AE00E94010261E08BE00E9401021D
:1012300061E08CE00E94010261E08DE00E94010209
:1012400062E082E00E94010262E083E00E9401020B
:1012500062E084E00E94010262E085E00E940102F7
:1012600061E086E00E940102E0917402F091750253
:1012700082E08083E0917002F09171021082E0912F
:101280007202F09173028FEC808310927C02E091E5
:101290007802F091790286E08083E0917602F09105
:1012A0007702808180618083E0917602F0917702FD
:1012B000808188608083E0917602F091770280815E
:1012C00080688083E0917602F091770280818F7D43
:1012D000808380917B00877F80937B0080E4809374
:1012E0007C0080917A00806480937A0080917A00FB
:1012F00086FDFCCF609178008091790070E0782BBA
:10130000072E000C880B990B61157105810591055D
:1013100011F00E94D90A74E0872E912CA12CB12CD7
:101320007724739480915A0281116DC010925902F2
:1013300010925802C0915802D0915902C530D1057F
:101340003CF50E94D50AA50194010E94E20ADC0145
:10135000CB010196A11DB11DCC0FDD1FCC5BDD4F74
:1013600099838883E0915802F0915902EE0FFF1F94
:10137000EC5BFD4F808191810E94120780915802A1
:101380009091590201969093590280935802D2CFBE
:10139000109259021092580200915802109159026D
:1013A000E801CC0FDD1FCC5BDD4F888199811816D9
:1013B00019063CF5880F991FFC01E35EFD4FF08094
:1013C00061E08F2D0E94D101E881F981EE0FFF1FAE
:1013D000EB5EFD4F6081718186E00E943D020E94BC
:1013E0004B0560E08F2D0E94D10186E00E948305AD
:1013F0000E944B050F5F1F4F109359020093580234
:10140000CBCF70925A0207E212E0CFE1D2E097E12F
:10141000E92E92E0F92EF801419151918F01552763
:10142000FA01E056FE4F8491FA01EA51FE4FC49052
:10143000FA01EA5BFD4FD490DD20A1F081110E94FA
:101440007B01ED2DF0E0EE0FFF1FE459FE4FA5915B
:10145000B491EC91CE2291E080E009F490E0C92EA5
:10146000D82E02C0C12CD12C82E392E00E9400074A
:10147000C6010E941207CD2859F461E088810E94BC
:10148000D101F7016081718186E00E943D0207C0B1
:1014900060E088810E94D10186E00E948305229647
:1014A000F2E0EF0EF11C82E00F32180709F0B3CF23
:1014B0000E94C70637CFE4E6F2E01382128288EE7C
:1014C00093E0A0E0B0E084839583A683B78389E0AE
:1014D00092E09183808385EC90E09587848784EC0B
:1014E00090E09787868780EC90E0918B808B81ECF1
:1014F00090E0938B828B82EC90E0958B848B86ECD2
:1015000090E0978B868B118E128E138E148E089519
:101510008F929F92AF92BF92CF92DF92EF92FF9203
:10152000CF93DF93EC01688179818A819B8161157A
:1015300071058105910521F464E279ED8BE597E071
:101540002DE133EF41E050E00E94E20A49015A01E7
:101550009B01AC01A7EAB1E40E94010B6B017C0185
:10156000ACEEB4EFA50194010E940F0BDC01CB019E
:101570008C0D9D1DAE1DBF1DB7FF03C00197A109B6
:10158000B04888839983AA83BB83BC01CD019F7730
:10159000DF91CF91FF90EF90DF90CF90BF90AF9011
:1015A0009F908F9008950C94880A81E092E00C94AB
:1015B000880A609301027093020280930302909361
:1015C00004020895052E97FB1EF400940E94F90A68
:1015D00057FD07D00E94140B07FC03D04EF40C9467
:1015E000F90A50954095309521953F4F4F4F5F4FE9
:1015F000089590958095709561957F4F8F4F9F4F7F
:1016000008950E94360BA59F900DB49F900DA49F46
:10161000800D911D11240895B7FF0C94010B0E94B9
:10162000010B821B930B0895A1E21A2EAA1BBB1B70
:10163000FD010DC0AA1FBB1FEE1FFF1FA217B3079E
:10164000E407F50720F0A21BB30BE40BF50B661FB4
:10165000771F881F991F1A9469F760957095809578
:1016600090959B01AC01BD01CF010895A29FB001EF
:10167000B39FC001A39F700D811D1124911DB29FC6
:10168000700D811D1124911D0895EE0FFF1F881FFD
:101690008BBF0790F691E02D199481E090E0F894CB
:0816A0000C94520BF894FFCFEB
:1016A800FF01000000000000005E06C705F605A562
:1016B800062706050619062C01F401BC0284030A54
:1016C800000B000C000D0002000300040005000DD3
:1016D8000A0045737461646F20646F20626F7461DF
:0416E8006F3A200035
:00000001FF
